:020000040000fa
:080000000002040000000000f2
:020000040000fa
:100400006f8520000eff20000e0188000000000014
:100410000c000700e0f82100010020001100070097
:10042000000020000000e000020032000000020096
:1004300000000000ee0f0200000000000040da00a3
:100440000000fe004440a900c08f20000000e00032
:100450000300320000002000a00188004440a800f2
:100460000000060091018800800078000000eb0089
:1004700015003700e280400032a0b4009101ba00bc
:10048000e280400032a0b4009102ba00e280400055
:1004900032a0b4000002eb00472bde00f507b200eb
:1004a000602ce10004003a000059eb008301e900f0
:1004b000fdff3e00040037006128e100010032002a
:1004c0000082eb00040007001101ba000200e00006
:1004d000e8ff3a00000006003159ba008301e90044
:1004e0000c0032002159ba008301e90008003200f3
:1004f0000400e00003003a00e280400032a0b400b3
:10050000f5ff370011d9ba008301e900faff3a007c
:100510008100e800e180400032a0b4000000060045
:1005200003f0a200889fbe008a9fbe008c1f780047
:1005300022010700290133006450e1004f0032001e
:100540006420e1005200320003826c0007003b008f
:100550000905d0000306d000820f54000c065d0090
:100560000200390002003200890178000306780099
:100570008582550004003d000003fd008103fd005d
:100580008502ea008b854200840f720002003b0066
:1005900060001000e08018006011b8000005eb005a
:1005a0007a28e1000a00390006007800c75ddd0006
:1005b000f707b200878075002d0037008281710037
:1005c0000a017800610560008180d1000080d300bd
:1005d0008502e900f9ff3b000604400087844800db
:1005e00002003b0060041400e0841c000988a300a2
:1005f000070032008a81710082817100610164000c
:100600008904d1000884d3008b05e8001700370067
:100610000978a30013003a000b00e0001300340037
:100620008b05e9000804440089844c000a447400e6
:100630000978a3000d003a000b00e0000700340029
:100640008b05e9000804440089844c0001003a004d
:100650000b0020000978a300f7ff32000001eb0037
:1006600002003700828171000a01780098000700bb
:100670000cf0a70001f0a000e10037006420e100c9
:1006800002003a00838f6c00e10033000801be00d5
:100690000200be00da003700889fbe008a9fbe00bd
:1006a0008c1f7800c5000700cc00330003866c0067
:1006b0006450e1002e0032006420e100330032007b
:1006c0006150e1002f0032006120e1003100320072
:1006d00085855500eb07b0000900200008042000c4
:1006e000050037000804440089844c000a003100ea
:1006f0000603430087834b000001530081815b00a8
:10070000f8ff33000203be000800a0000804440004
:1007100089844c00f6ff3900c639dd00830173007f
:1007200001003200130020008904d1000884d300a6
:100730000998a300050032000800a7000300a000ec
:100740008904d1000884d3008b05e8008904d10016
:100750000884d3000001eb000281d2005c00070096
:1007600001f0a1000cf0a70001f0a000a4003700e8
:100770006420e100a60032000801be000200be00b5
:10078000f7ff37006120e100a10032006000b800ef
:10079000f3ff37000000200001f82700f0ff3700ca
:1007a000839f68000100e00002003d00600010002f
:1007b000e08018000300e00002003d00600111002d
:1007c000e0811900c90007004f00e00002003b0073
:1007d00060001000e08018000000060014002000f7
:1007e000d20037000001be005f0007000470a700c0
:1007f00003f0a10003f8a30013003a006509b1005b
:1008000010003200090035006928e10002003500bf
:100810000100280000000500000040008180480021
:100820008502e900fcff3a0000000600f88f420054
:10083000050035008100d1000080d3008502e8006a
:10084000fcff3a00000006008000eb0000000500fd
:10085000889fbe008a9fbe00010578000000e0006e
:10086000180032000004be006011b8006b092000bf
:100870000982cf00020039000882cf000441b00095
:10088000694252000e00320008003b008281710074
:10089000610164008904d1000884d3008b05e8005d
:1008a0000442e800f9ff3a0005003700080444005c
:1008b00089844c008b05e9000442e900fbff3a0003
:1008c000030007004f05be004f04be0000000600f5
:1008d00081002000618055000b003d000b002000ce
:1008e00061fe2f000100e1001d00340082817100d3
:1008f000610164008904d1000884d3000000e8008d
:10090000faff3a00710020006100640003007000eb
:10091000020060000900320061044400e0844c00e1
:100920000988a500050032008b05e8006808e10091
:1009300002003a008904d1000884d300f20f20009d
:100940000258e10005003d00c75ddd00f907b20077
:100950008980750008007800000006000bf8270069
:100960008b00780000000500c70ade00f107b20026
:10097000f50fb20008003200e1cf42000200320061
:100980000170a00024000500810f700001003200fa
:100990000408050044000500810f700002003a00c1
:1009a000140005008502e9000000400081c04800f5
:1009b000fcff3b000170a000240005000004be0005
:1009c000e9ff07000003be000405be000200be00f0
:1009d000e5ff0700844f7500000006000200be001e
:1009e0006450e100050036006420e100020036009a
:1009f0000968a30001003a000800be000160a000e1
:100a00004f0678004f05be004f04be0000000600f0
:100a1000f0ff2f00f1ff2700f9ff3700889fbe008d
:100a20008a9fbe008c1f7800e4ff0700ebff3300b5
:100a300003866c006450e100240032006420e10071
:100a4000270032006150e100220032006120e10005
:100a5000210032008b854200eb07b1000134b80061
:100a6000003ab8000804420089844a00013ab800fc
:100a70000030b8008880400009014a0004003300bb
:100a80000000400081804800020149008b05e90018
:100a9000c909dd008301700001003200130020004d
:100aa000c814de004814dd004709de001200b20061
:100ab000c808de000884700085ff070001f0a1006f
:100ac0000cf0a70001f0a000cdff37006120e1008d
:100ad000cfff32000801be000200be00f7ff370062
:100ae0006150e100fcff3a00c9ff37006022b80006
:100af000060220000000d0008180d2000482d200d3
:100b00008582d2000000a0000202520083825a00b7
:100b1000030031000202420083824a000000a1006b
:100b20000603e900f3ff3a0000000600889fbe00bc
:100b30008a9fbe00841f7800a0ff07004f00780046
:100b400011003300f0ff2f00838f6c0006003b0084
:100b5000040565000a00a7000800370009f0a60098
:100b60001000200008003700820f5400838f5c00c3
:100b7000030039001000200001003e0000002000aa
:100b800009f0a7000000ea004f05be004f04be00b8
:100b90000000e0000000060080017800020037003d
:100ba00081597800040178000202e900e00f510049
:100bb000fbff3a0000000600010020008042880090
:100bc0009142880010c0b300e18420008048780082
:100bd00000000600e08420008040eb0090cf100071
:100be00002003a0010002000f3ff0700d2e62400c4
:100bf000631c2400804280009142800009000700ad
:100c0000920323000300200000004100818049007e
:100c100080428800914288000100780000f0a10025
:100c200000000600020ab900001bb9000200b8006b
:0c0c30008100420081004300000006002b
:020000040000fa
:0200000401f009
:04000000ffff0000fe
:020000040000fa
:0200000401f009
:04000800ffff0000f6
:020000040000fa
:0200000401f009
:04000c0078ff000079
:020000040000fa
:0200000401f009
:040010005bff000092
:020000040000fa
:0200000401f009
:0400140079ff000070
:020000040000fa
:0200000401f009
:04001800fcff0000e9
:020000040000fa
:100008005814000058140000581400005814000038
:100018005814000058140000581400005814000028
:100028005814000058140000581400005814000018
:1000380058140000581400005814000078130000e9
:10004800ce13000058140000581400005814000083
:1000580058140000581400005814000058140000e8
:1000680058140000581400005814000058140000d8
:1000780058140000581400005814000058140000c8
:1000880058140000581400005814000058140000b8
:1000980058140000581400005814000058140000a8
:1000a8005814000058140000581400005814000098
:1000b8005814000058140000581400005814000088
:1000c8005814000058140000581400005814000078
:1000d8005814000058140000581400005814000068
:1000e8005814000058140000581400005814000058
:1000f8005814000058140000581400005814000048
:100108005814000058140000581400005814000037
:100118005814000058140000581400005814000027
:100128005814000058140000581400005814000017
:100138005814000058140000581400005814000007
:1001480058140000581400005814000058140000f7
:1001580058140000581400005814000058140000e7
:1001680058140000581400005814000058140000d7
:1001780058140000581400005814000058140000c7
:1001880058140000581400005814000058140000b7
:1001980058140000581400005814000058140000a7
:1001a8005814000058140000581400005814000097
:1001b8005814000058140000581400005814000087
:1001c8005814000058140000581400005814000077
:1001d8005814000058140000581400005814000067
:1001e8005814000058140000581400005814000057
:0801f800581400005814000027
:020000040000fa
:100208005814000058140000581400005814000036
:100218005814000058140000581400005814000026
:100228005814000058140000581400005814000016
:1002380058140000581400005814000078130000e7
:10024800ce13000058140000581400005814000081
:1002580058140000581400005814000058140000e6
:1002680058140000581400005814000058140000d6
:1002780058140000581400005814000058140000c6
:1002880058140000581400005814000058140000b6
:1002980058140000581400005814000058140000a6
:1002a8005814000058140000581400005814000096
:1002b8005814000058140000581400005814000086
:1002c8005814000058140000581400005814000076
:1002d8005814000058140000581400005814000066
:1002e8005814000058140000581400005814000056
:1002f8005814000058140000581400005814000046
:100308005814000058140000581400005814000035
:100318005814000058140000581400005814000025
:100328005814000058140000581400005814000015
:100338005814000058140000581400005814000005
:1003480058140000581400005814000058140000f5
:1003580058140000581400005814000058140000e5
:1003680058140000581400005814000058140000d5
:1003780058140000581400005814000058140000c5
:1003880058140000581400005814000058140000b5
:1003980058140000581400005814000058140000a5
:1003a8005814000058140000581400005814000095
:1003b8005814000058140000581400005814000085
:1003c8005814000058140000581400005814000075
:1003d8005814000058140000581400005814000065
:1003e8005814000058140000581400005814000055
:0803f800581400005814000025
:020000040000fa
:100c3c00556e0000686100006e6400006c65000079
:100c4c0064200000696e0000746500007272000080
:100c5c0075700000742c000020000000756e000000
:100c6c006b6e00006f7700006e00000050490000b2
:100c7c0043320000344800004a3300003247000081
:100c8c005032000030320000004100003200000001
:100c9c0041330000004400006576000069630000e9
:100cac006520000049440000203d000020000000a9
:100cbc0020280000002900002c2000007265000094
:100ccc0076690000736900006f6e00002000000060
:100cdc00290a0000000a00000a2a00002a2a000043
:100cec002a2a00002a2a00002a2a00002a2a0000a8
:100cfc002a2a00002a2a00002a2a00002a2a000098
:100d0c002a2a00002a2a00002a2a00002a2a000087
:100d1c002a2a00002a2a00002a2a00002a2a000077
:100d2c002a2a00002a2a00002a2a00002a2a000067
:100d3c002a2a00002a2a00002a2a00002a2a000057
:100d4c002a2a00000a2a0000205700004152000005
:100d5c004e4900004e470000202d0000207400007a
:100d6c006869000073200000707200006f6700005b
:100d7c00726100006d20000077610000732000009c
:100d8c00636f00006d700000696c0000656400000a
:100d9c00206600006f72000020740000686500007f
:100dac0020770000726f00006e670000202a0000a0
:100dbc000a2a00002063000068690000702000000f
:100dcc006f720000206600006f720000206100004e
:100ddc006e200000756e00006b6e00006f770000d7
:100dec006e200000726500007669000073690000d7
:100dfc006f6e0000206f0000662000007468000019
:100e0c006973000020630000686900007021000015
:100e1c002020000020200000202a00000a2a0000c8
:100e2c0020540000686900007320000070720000fc
:100e3c006f670000726100006d2000006d610000a2
:100e4c0079200000707200006f6400007563000070
:100e5c0065200000756e000065780000706500006c
:100e6c006374000065640000206200006568000087
:100e7c00766900006f7200002120000045640000bc
:100e8c0069740000202a00000a2a00002074000067
:100e9c006865000020680000656100006465000062
:100eac0072200000666900006c6500007320000071
:100ebc00746f000020700000726f000070650000fd
:100ecc00726c000079200000646500006669000007
:100edc006e6500002074000068690000732000003b
:100eec006368000069700000206f00007220000031
:100efc00202a00000a2a00002072000065760000fb
:100f0c0069730000696f00006e200000616e0000c4
:100f1c0064200000746f0000206900006e730000f4
:100f2c007572000065200000636f00007272000093
:100f3c0065630000742000006f7000006572000093
:100f4c0061740000696f00006e2e0000202000000c
:100f5c00202000002020000020200000202a00007b
:100f6c000a2a000020200000202000002020000081
:100f7c002020000020200000202000002020000065
:100f8c002020000020200000202000002020000055
:100f9c002020000020200000202000002020000045
:100fac002020000020200000202000002020000035
:100fbc002020000020200000202000002020000025
:100fcc002020000020200000202a00000a2a000017
:100fdc00204e00004f540000453a0000204900000c
:100fec006620000074680000697300002077000020
:100ffc0061730000206300006f6d000070690000d9
:10100c006c65000064200000666f00007220000018
:10101c007468000065200000636f000072720000ad
:10102c0065630000742000006368000069700000b4
:10103c002c200000202a00000a2a00002061000059
:10104c006e640000206f00006e6c000079200000c0
:10105c006f63000063750000727300002061000074
:10106c0074200000706f000077650000722d000086
:10107c006f6e0000202800006e6f000074200000ce
:10108c0064750000726900006e670000206100004a
:10109c00204d0000434c0000522000002020000096
:1010ac00202a00000a2a000020720000657300004c
:1010bc00657400002c200000766500007269000049
:1010cc006679000020740000686100007420000044
:1010dc004156000044440000206100006e64000092
:1010ec0020410000565300005320000061720000a4
:1010fc0065200000636f00006e6e000065630000e9
:10110c0074650000642e000020200000202a0000de
:10111c000a2a0000204f00006e20000074680000b6
:10112c0065200000504900004332000034480000a4
:10113c00333200004750000032300000322c0000e7
:10114c00206e00006f740000206300006f6e0000c2
:10115c006e65000063740000696e0000672000007b
:10116c0041560000444400002020000020200000d4
:10117c002020000020200000202a00000a2a000065
:10118c0020700000726f0000647500006365000041
:10119c00732000007468000069730000206d00006b
:1011ac00657300007361000067650000206f00002c
:1011bc006e6c00007920000061740000207000004b
:1011cc006f770000657200002d750000702e000016
:1011dc002020000020200000202000002020000003
:1011ec0020200000202a00000a2a00002a2a0000e1
:1011fc002a2a00002a2a00002a2a00002a2a000093
:10120c002a2a00002a2a00002a2a00002a2a000082
:10121c002a2a00002a2a00002a2a00002a2a000072
:10122c002a2a00002a2a00002a2a00002a2a000062
:10123c002a2a00002a2a00002a2a00002a2a000052
:10124c002a2a00002a2a00002a2a00002a2a000042
:10125c002a2a00000a000000466100007374000096
:10126c0020520000432000004f730000630a00006e
:10127c00004600006173000074200000524300001f
:10128c00204f000073630000207700006974000099
:10129c0068200000504c00004c0a00000050000078
:1012ac00726900006d61000072790000204f00002f
:1012bc007363000020280000585400002c2000000c
:1012cc00485300002c20000045430000290a000070
:1012dc0000500000726900006d610000727900001e
:1012ec00204f0000736300002028000058540000b9
:1012fc002c200000485300002c2000004543000027
:10130c00292000007769000074680000205000005c
:10131c004c4c00000a00000053650000636f000095
:10132c006e64000061720000792000004f730000b1
:10133c00630a0000004c00006f7700002050000092
:10134c006f770000657200002052000043200000ff
:10135c004f730000630a0000004600006173000038
:10136c007420000052430000204f00007363000003
:10137c002f310000360a00000046000061730000a7
:10138c007420000052430000204f000073630000e3
:10139c002f4e00000a000000556e00006b6e00001e
:1013ac006f7700006e2000006f730000636900000f
:1013bc006c6c0000617400006f72000020740000ff
:1013cc0079700000652e0000000a000044650000e2
:1013dc0076690000636500002068000061730000fe
:1013ec0020620000656500006e200000696e000040
:1013fc00207300006c65000065700000206d00001b
:10140c006f640000650a0000000a000044650000db
:10141c0076690000636500002068000061730000bd
:10142c0020620000656500006e200000696e0000ff
:10143c0020690000646c0000652000006d6f0000e6
:10144c00646500000a0000000a5200006573000089
:10145c006574000020630000617500007365000076
:10146c003a200000005000006f7700006572000009
:10147c002d6f00006e2e00000a000000536f00005c
:10148c006674000077610000726500002052000055
:10149c0065730000657400002e0a00000057000000
:1014ac006174000063680000646f00006720000036
:1014bc00546900006d6500006f750000743a0000ff
:1014cc00200000000a0000004d4300004c520000b8
:1014dc0020610000737300006572000074690000e5
:1014ec006f6e00002e0a000000420000726f0000b8
:1014fc00776e00002d6f0000757400002e0a00003e
:10150c00005400007261000070200000436f000066
:10151c006e6600006c690000637400002e0a000007
:10152c00004900006c6c000065670000616c0000f5
:10153c00204300006f6e00006469000074690000b5
:10154c006f6e00002e0a0000004300006f6e00005a
:10155c006669000067750000726100007469000024
:10156c006f6e0000204d0000697300006d6100007b
:10157c0074630000682e00000a000000556e000025
:10158c006b6e00006f7700006e200000726500002b
:10159c0073650000742e00000a0000004572000004
:1015ac00726f000072200000747200006170000005
:1015bc0070650000643a00002000000050720000ca
:1015cc00696f000072690000747900003a20000015
:1015dc00002c00002056000065630000746f0000b2
:1015ec00722000006e7500006d62000065720000d4
:1015fc003a200000000a00000a00000045720000ba
:10160c00726f000072200000696e0000202f000035
:10161c005573000065720000732f000068650000b0
:10162c0068610000686f000068650000652f0000ad
:10163c00446f0000637500006d6500006e7400005f
:10164c00732f00005345000031300000322f000092
:10165c0043440000207300007475000066660000af
:10166c002f6300006f640000652f0000696e00009e
:10167c00636c000075640000652f00007069000049
:10168c0063320000345f000075610000727400006a
:10169c002e680000206c0000696e000065200000c0
:1016ac0031300000343a0000204100005353000058
:1016bc0045520000542800006272000067200000b0
:1016cc003c3d0000203000007846000046460000fb
:1016dc004629000020660000616900006c6500006e
:1016ec00642e00000a00000045720000726f0000ba
:1016fc0072200000696e0000202f0000557300005e
:10170c0065720000732f00006865000068610000be
:10171c00686f000068650000652f0000446f0000d2
:10172c00637500006d6500006e740000732f00007f
:10173c005345000031300000322f000043440000bc
:10174c002073000074750000666600002f630000b3
:10175c006f640000652f0000696e0000636c000070
:10176c0075640000652f0000706900006332000092
:10177c00345f000075610000727400002e68000078
:10178c00206c0000696e0000652000003132000002
:10179c00353a000020410000535300004552000030
:1017ac0054280000753800005f700000647300005e
:1017bc00656c0000203c00003d20000055580000e6
:1017cc004d4f0000444500005f50000044530000a2
:1017dc00454c00005f3900004441000054410000ba
:1017ec005f4e00004f500000415200004954000071
:1017fc005929000020660000616900006c6500003a
:10180c00642e00000a00000045720000726f000098
:10181c0072200000696e0000202f0000557300003c
:10182c0065720000732f000068650000686100009d
:10183c00686f000068650000652f0000446f0000b1
:10184c00637500006d6500006e740000732f00005e
:10185c005345000031300000322f0000434400009b
:10186c002073000074750000666600002f63000092
:10187c006f640000652f0000696e0000636c00004f
:10188c0075640000652f0000706900006332000071
:10189c00345f000075610000727400002e68000057
:1018ac00206c0000696e00006520000031330000e0
:1018bc00343a000020410000535300004552000010
:1018cc0054280000753800005f6e0000756d000034
:1018dc00537400006f7000006269000074730000a4
:1018ec00203c00003d200000322900002066000052
:1018fc00616900006c650000642e00000a000000a5
:10190c00554100005254000031200000706100006d
:10191c00726900007479000020650000727200008a
:10192c006f7200000a000000554100005254000084
:10193c003120000066720000616d0000696e0000cd
:10194c006720000065720000726f0000720a0000d0
:10195c00005500004152000054310000206f00007f
:10196c007665000072720000756e00002065000044
:10197c00727200006f7200000a00000045720000d5
:10198c00726f000072200000696e0000202e0000b3
:10199c002e2f00002e2e00002f43000044200000ac
:1019ac007374000075660000662f0000636f000002
:1019bc00646500002f6300006f6d00006d6f000008
:1019cc006e2f00007069000063320000345f00006d
:1019dc00746900006d650000722e00006320000029
:1019ec006c6900006e65000020380000303a000081
:1019fc0020410000535300004552000054280000c1
:101a0c00665f000074690000636b000073200000c7
:101a1c003c2000003635000035330000352e000028
:101a2c003529000020660000616900006c6500002b
:101a3c00642e00000a00000045720000726f000066
:101a4c0072200000696e0000202e00002e2f000076
:101a5c002e2e00002f430000442000007374000061
:101a6c0075660000662f0000636f0000646500005f
:101a7c002f6300006f6d00006d6f00006e2f000073
:101a8c007069000063320000345f0000746900006c
:101a9c006d650000722e0000632000006c69000070
:101aac006e65000020390000383a0000204100002b
:101abc00535300004552000054280000665f00009c
:101acc0074690000636b0000732000003c20000070
:101adc003635000035330000352e00003529000066
:101aec0020660000616900006c650000642e000037
:101afc000a00000045720000726f000072200000a6
:101b0c00696e0000202e00002e2f00002e2e0000eb
:101b1c002f43000044200000737400007566000021
:101b2c00662f0000636f0000646500002f630000e7
:101b3c006f6d00006d6f00006e2f0000706900006b
:101b4c0063320000345f0000746900006d650000b2
:101b5c00722e0000632000006c6900006e650000ae
:101b6c0020310000333200003a20000041530000c5
:101b7c00534500005254000028750000385f0000e7
:101b8c00544300004b500000532000003c3d00002b
:101b9c00203300002920000066610000696c000001
:101bac00656400002e0a0000000000004572000071
:101bbc00726f000072200000696e0000202e000081
:101bcc002e2f00002e2e00002f430000442000007a
:101bdc007374000075660000662f0000636f0000d0
:101bec00646500002f6300006f6d00006d6f0000d6
:101bfc006e2f00007069000063320000345f00003b
:101c0c007365000072690000616c00002e630000b7
:101c1c00206c0000696e0000652000003737000062
:101c2c003a200000496e0000766100006c690000eb
:101c3c0064200000554100005254000000300000a8
:101c4c007800000045720000726f000072200000e6
:101c5c00696e0000202e00002e2f00002e2e00009a
:101c6c002f430000442000007374000075660000d0
:101c7c00662f0000636f0000646500002f63000096
:101c8c006f6d00006d6f00006e2f0000706900001a
:101c9c0063320000345f000073650000726900005d
:101cac00616c00002e630000206c0000696e000067
:101cbc006520000032390000323a00002049000053
:101ccc006e760000616c0000696400002055000015
:101cdc00415200005400000045720000726f000079
:101cec0072200000696e0000202e00002e2f0000d4
:101cfc002e2e00002f4300004420000073740000bf
:101d0c0075660000662f0000636f000064650000bc
:101d1c002f6300006f6d00006d6f00006e2f0000d0
:101d2c007069000063320000345f000073650000ce
:101d3c0072690000616c00002e630000206c0000d2
:101d4c00696e00006520000033330000313a00005a
:101d5c00204900006e760000616c00006964000090
:101d6c002055000041520000540000004572000054
:101d7c00726f000072200000696e0000202e0000bf
:101d8c002e2f00002e2e00002f43000044200000b8
:101d9c007374000075660000662f0000636f00000e
:101dac00646500002f6300006f6d00006d6f000014
:101dbc006e2f00007069000063320000345f000079
:101dcc00636c00006f6300006b66000072650000be
:101ddc00712e0000632000006c6900006e6500002d
:101dec0020370000373a0000204100005353000018
:101dfc004552000054280000753800005f73000045
:101e0c006f75000072630000652000003c2000002c
:101e1c003829000020660000616900006c65000034
:081e2c00642e00000a00000012
:020000040000fa
:101e34000000fa00f10707000080fa000000060025
:101e44000000fa006b00a900cec2a900c8c2a90014
:101e54000080fa00000006000000fa006aa0a90051
:101e6400cf22a900c922a9000080fa0000000600c0
:101e74000000fa0069c0a900cf82a900c982a900a4
:101e84002d83a8000080fa00000006000000fa007c
:101e940069a0a900cfa2a900c9a2a9002d63a80026
:101ea4000080fa00000006000000fa006980a90022
:101eb400cfc2a900c9c2a9002d43a8000080fa001e
:101ec400000006000000fa0068c0a900c842a8008b
:101ed4002c83a8000080fa00000006000000fa002d
:101ee40068e0a900c862a8002ca3a8000080fa003a
:101ef400000006000000fa006820a900c882a800bb
:101f04000080fa00000006000000fa006b60a900df
:101f1400c8a2a8000080fa00000006000000fa0031
:101f2400e1ff0700d9ff0700d1ff0700caff070040
:101f34000080fa00000006000000fa00e1ff07003c
:101f440068c0a800e5ff070068e0a800e9ff0700f3
:101f54006820a800ecff07006b60a8000080fa006e
:101f6400000006000000fa001061a9000000eb0068
:101f740090088800900880004400de006340600000
:101f8400ee05070080007800800c2000a105070002
:101f94000000e900700888000000eb005008880089
:101fa4008500a9004105800080ff2f0000806000ab
:101fb4000000a000400588009500a80013e1a800d7
:101fc4000080fa00000006000000fa009cff0700f1
:101fd4000080fa00000006000000fa0094ff0700e9
:101fe400d5ff0700cdff0700f7ff0700ddff07005f
:101ff400000000005016800064006000e00f5000f4
:102004000d0032005016800068006000e00f5000a0
:10201400090032005016800070006000e00f50008c
:10202400050032005116800000022000008060008c
:10203400e00f5000efff3a00f0002000c801070055
:102044000200070000000000eaff37002400fa0045
:102054006300470001022000010178008000eb00ca
:10206400ccfa0700a0052000000f780010c0b300d0
:10207400204798001e00370063004700ae409000e0
:1020840044000700630047001e017800ae40900042
:102094005c00070063004700ae409000a00007000a
:1020a400e04f500011003200450107002e4090001f
:1020b4000040e800204798002e4090008080fb00fc
:1020c4006000200000017800110009008280d8001f
:1020d4008000fd0000407800e04f500004003a000a
:1020e400c00320001e0f4000010037001901070043
:1020f400ae40900000c2b30080cf5000deff360037
:102104000080fa00000006000000fa00cdc2a90019
:10211400cda2a900cd82a900cd22a900501680002d
:1021240064006000e00f500002003a00cdc2a80035
:1021340001003700cdc2a90050168000680060007d
:10214400e00f500002003a00cda2a80001003700c1
:10215400cda2a9005016800070006000e00f50006e
:1021640002003a00cd82a80001003700cd82a90008
:10217400511680000002200000806000e00f500033
:1021840002003a00cd22a800e4ff3700cd22a900c6
:10219400e2ff37000600fa00881f78001007980055
:1021a400414798003042800082fa07000000eb00ab
:1021b400000f78000c0037001e0078009e0090008d
:1021c4000084400082fa07004100200001017800e9
:1021d400110009000200d8008000fd0000407800d2
:1021e400004c78001e0fe8004e4090000080fb0079
:1021f4009e0f5000f0ff3c004f0478000080fa006e
:10220400000006000a00fa002007980061479800c1
:10221400420798004e009000010020000001be001b
:1022240000a62e00010020005cf9070010079800aa
:102234000000eb00000f7800330037001e00780028
:10224400ae00900000804000104078000080fb0049
:10225400cf80de003200200003002000820f5000f7
:10226400838f580025003e00006001000300370002
:10227400120037000900370018003700cdc2a8004b
:10228400c00d2000f80007001e0090003401070074
:10229400cdc2a9002c01070018003700cd82a80088
:1022a40060122000f00007001e0090002c010700bf
:1022b400cd82a9002401070010003700cda2a80098
:1022c40020172000e80007001e00900024010700ea
:1022d400cda2a9001c01070008003700cd22a800e8
:1022e400801b2000e00007001e0090001c01070076
:1022f400cd22a90014010700000000001e00900078
:10230400170107001e0fe8006e4090000080fb00dc
:102314009e0f5000c9ff3c000080fa000000060038
:102324000600fa0010079800414798000000eb00ef
:10233400000f78000000eb00000f78007e003700eb
:10234400000000005016800064006000e00f5000a0
:102354000d0032005016800068006000e00f50004d
:10236400090032005016800070006000e00f500039
:102374000500320051168000000220000080600039
:10238400e00f5000efff3a00f0002000f4000700d7
:102394005016800064006000e00f500014003a0002
:1023a400cdc2a800c00d2000af000700000000004f
:1023b4005016800064006000e00f5000fcff320003
:1023c400f0002000e6000700cdc2a900de000700ef
:1023d4001e0078009e0090000080400010407800ad
:1023e400e04f50004c0032000040eb005700370033
:1023f4005016800068006000e00f500014003a009e
:10240400cda2a800201720009700070000000000bc
:102414005016800068006000e00f5000fcff32009e
:10242400f0002000ce000700cda2a900c6000700de
:102434001e0078009e00900000804000104078004c
:10244400e14f5000360032000040eb003f003700ff
:102454005016800070006000e00f500014003a0035
:10246400cd82a800601220007f0007000000000059
:102474005016800070006000e00f5000fcff320036
:10248400f0002000b6000700cd82a900ae000700ce
:102494001e0078009e0090000080400010407800ec
:1024a400e24f5000200032000040eb0027003700cc
:1024b400511680000002200000806000e00f5000f0
:1024c4001c003a00cd22a800801b200066000700f3
:1024d400000000005116800000022000008060000f
:1024e400e00f5000fbff3200f00020009c000700ca
:1024f400cd22a900940007001e0078009e009000e1
:102504000080400010407800e34f50000800320083
:102514000040eb000d00370000000000050037000c
:102524000000000003003700000000000100370035
:10253400000000001e0fe8004e4090000080fb00e9
:102544009e0f50007eff3c0010c0b3000080fa00d4
:10255400000006000200fa00400a200042000700c2
:102564000000eb00000f78000d003700cd22a8001a
:10257400cd82a800cda2a800cdc2a80040062000ac
:1025840077000700cd22a900cd82a900cda2a90021
:10259400cdc2a90040062000710007001e0fe8000c
:1025a4001e007800e30f5000f0ff340066000700bf
:1025b400401f20006a0007000080fa0000000600a7
:1025c4000200fa000000eb00000f78002100370041
:1025d400cd22a8004006200061000700cd22a900fa
:1025e400cd82a800400620005d000700cd82a9002e
:1025f400cda2a8004006200059000700cda2a900e2
:10260400cdc2a8004006200055000700cdc2a90095
:10261400cdc2a8004006200051000700cdc2a90089
:10262400cda2a800400620004d000700cda2a900bd
:10263400cd82a8004006200049000700cd82a900f1
:10264400cd22a8004006200045000700cd22a900a5
:102654001e0fe8001e007800e10f5000dcff34007c
:102664000080fa00000006000200fa00881f7800cb
:10267400000f780000012000800888008008800096
:102684004400de00634060002c040700000478006e
:102694001e007800010020000001be0000122a0084
:1026a400710020003df807000000780088007800e1
:1026b400d80307000000e900600888000000eb0070
:1026c4003008880084e0a90031058000000027005c
:1026d400008070003005880094e0a80011e1a80093
:1026e4004f0478000080fa0000000600809fbe00be
:1026f400821f78000000fa006116800000042000a8
:102704008080600010c0b300e08f500001003200f0
:102714000040eb000080fb00610060004600dd002b
:1027240062168000f1fb2f008100610000807000c0
:102734006016880084e0a9000080fa004f01780048
:102744004f00be00004006000000fa0094e0a9001b
:1027540011e1a900ccc2a9000080fa000000060023
:102764000400fa00100798001e0090006500b900ec
:1027740000007800000f78000000eb002042880081
:1027840000000000204280009e0f5000fdff390031
:102794000080fa0000000600801f78000000fa00a4
:1027a400204280000000e80020428800304280007f
:1027b4000000e800304288008500a9000080fa008b
:1027c4004f007800004006000000fa008b05070067
:1027d4000080fa00000006000000fa006960a90009
:1027e400cfe2a800c9e2a9002d23a8000080fa00c6
:1027f400000006000000fa00f7ff070000a821000f
:102804006100200000428800114288006000b80086
:10281400e0418800f1418800020007000080fa00ce
:10282400000006000000fa00e0418000f141800051
:1028340061004000e0804800e0418800f1418800e8
:10284400e2418000f3418000004280001142800098
:10285400800f5100818f59000400360005000700e5
:102864006000b800e0418800f14188000080fa006f
:10287400000006000000fa00601680000080ea00f4
:102884004f00de00004078000080fb004f00dd00b8
:1028940062168000f1ff2700810061000080700053
:1028a400601688000080fa00000006003600f80078
:1028b400809fbe00829fbe00849fbe00869fbe0094
:1028c4003400f80000002000a00188000000fa0095
:1028d400c08420000107800001087800e06128001e
:1028e400080007000080fa003400f9004f03be001e
:1028f4004f02be004f01be004f00be003600f9007b
:10290400004006000200fa00000f780040428000f8
:10291400e00f500003003a001e0078004042880097
:102924000000fe000080fa00000006000600fa0025
:1029340010079800210798001e009000000f7800ef
:102944001e009000ae0090004008de000100200050
:102954000040780032e0b7001e0078001080ba0012
:1029640001002000c001dd00020020001e007800ec
:102974001000ba0001002000000071008180710085
:102984000080fa00000006000e00fa00000020009b
:10299400f10f2000e5ff0700300798004107980079
:1029a40020002000f10f2000e0ff070050079800ee
:1029b4006107980010c0b300004f780040632800fe
:1029c4001007980040632800200798003e019000fb
:1029d400ce019000d0f1200001002000800f5100b2
:1029e400818f590003003a00c06328001007980043
:1029f400020037000040eb00004f78005e009000ba
:102a0400ee0090001200230003002000820f50000b
:102a1400838f5800060032002200230003002000a8
:102a2400820f5000838f58000400320006003700e4
:102a3400b06428002007980006003700e0642800ee
:102a440020079800030037000040eb00004f780097
:102a54000000000010652800090107003e009000f6
:102a6400ce00900089010700e065280004010700fa
:102a74001e009000020107001066280000010700f4
:102a84005e009000ee00900080010700e0652800e1
:102a9400fb0007002e009000f9000700e066280004
:102aa400f70007001e407800e04f500002003a0093
:102ab40010672800f20007000080fa0000000600fa
:102ac4000200fa00103a80004c00de00674060000b
:102ad400004f78009e4078000180fb00cf80de002c
:102ae4007200200003002000820f5000838f5800e2
:102af40021003e0000600100070037000900370094
:102b04000b0037000d0037000f00370011003700ad
:102b1400130037001500370020932800d800070061
:102b240018003700f0932800d5000700150037007f
:102b340050952800d200070012003700f0962800b4
:102b4400cf0007000f00370020992800cc000700b1
:102b54000c003700109a2800c9000700090037004c
:102b6400309b2800c600070006003700309c280070
:102b7400c300070003003700209d280061ff070001
:102b8400000000000080fa00000006000200fa00c5
:102b94000040eb00004f7800003a800068006000bd
:102ba400e00f500003003200b09e2800b40007007c
:102bb4004067a900003a800064006000e00f500004
:102bc40003003200b0a02800ad0007004047a90070
:102bd400a0a22800aa000700003a8000610060005b
:102be400e00f50000e00320010c0b300004f780018
:102bf40090a32800a20007004007a9004027a900cd
:102c04000000eb00404288000000eb0050428800c6
:102c1400c08420008000eb00010878004d003700dc
:102c2400013a80000004200000806000e00f5000a2
:102c34000600320040a428009100070010c0b30031
:102c4400004f780040c7a90040e7a900003a80007f
:102c540070006000e00f50000d00320010c0b3009f
:102c6400004f780050a528008500070050428000de
:102c7400e00f500002003200504280008000070044
:102c840080a628007e0007004087a90040e7a9002d
:102c9400013a80000008200000806000e00f50002e
:102ca4000500320010c0b300004f7800a0a6280031
:102cb4007300070040e7a900003a8000620060004a
:102cc400e00f50000500320010c0b300004f780040
:102cd400b0a728006a0007004027a900013a800035
:102ce4000000280000806000e00f50000500320062
:102cf40010c0b300004f780070a8280060000700df
:102d040041e7a900013a800000002400008060002f
:102d1400e00f50000500320010c0b300004f7800ef
:102d240070a928005600070041c7a900013a800095
:102d34000020200000806000e00f500005003200f9
:102d440010c0b300004f7800b0aa28004c00070060
:102d54004127a9001e407800e04f500002003a00cd
:102d640040ac28004600070040428000e00f5000bd
:102d74001a00320040ad28004100070040428000a4
:102d84003f000700c084200010007800e00f5000ce
:102d94000b00320040ae280039000700604280007a
:102da4004800de006f406000a1000700f0ae28007c
:102db40033000700604280000074a1009c000700fb
:102dc40010b028002e0007000000eb0040428800ed
:102dd400c08420008000eb0001087800eafe0700b0
:102de40037ff07000080fa00000006000000fa0028
:102df4000080eb00401688000080eb00001688007d
:102e04000080eb00601988000080eb00500388000c
:102e14000080eb00400388000080fa0000000600f8
:102e24000200fa00000f780067fe070071fe070039
:102e340000102e00010020007d01070053ff070051
:102e44001e0078000e0007000080fa000000060053
:102e54000200fa00004f7800a0428000e10f500009
:102e640003003a001e4078005303070002003700b5
:102e7400c0dd2800a3fe07000080fa000000060061
:102e84000200fa00000f7800040037001e007800ea
:102e940010407800eeff07001e0fe8001e007800c7
:102ea40010407800e04f5000f8ff3a000080fa002c
:102eb400000006000a00fa00200798003107980075
:102ec400024f98003e009000e00f500002003a00cc
:102ed4000000eb00240037000000eb00100798000e
:102ee4000000eb0010079800170037000e48900010
:102ef400e04f5000030032003a010700004f780011
:102f0400020037002c010700004f78001e407800b3
:102f1400ea4f5000100032001e407800ed4f500080
:102f24000d0032001e407800ae009000804878000a
:102f34002e0090000000e800200798001e0090007a
:102f44000000e80010079800be0090001e009000ea
:102f5400808f5000e5ff3e00ae0090000040eb0083
:102f6400804878001e0090000080fa0000000600ef
:102f74000400fa00000f7800110798000041eb00ec
:102f84009e0090001e007800caff07000080fa002f
:102f9400000006000400fa00000f780011079800f2
:102fa40012c0b3009e0090001e007800c1ff07000d
:102fb4000080fa00000006000400fa002047980090
:102fc4002e4090000080fb004400de00004f78009b
:102fd4001e407800e94f50000400360071c3b3006e
:102fe4001ec040009aff07000300370001c3b3006e
:102ff4001ec0400096ff07002e4090006f4f6000f7
:103004001e407800e94f50000400360071c3b3003d
:103014001ec040008eff07000300370001c3b30049
:103024001ec040008aff07000080fa00000006006e
:103034000200fa00004f780050e2280090ff0700d9
:103044001e407800dcff07000080fa000000060044
:103054000400fa001007980050e2280088ff0700d7
:103064001e0090004800de00004f78001e407800eb
:10307400d1ff07001e009000004f78001e4078002a
:10308400cdff07000080fa00000006000600fa00e9
:10309400100798002107980050e2280078ff0700e5
:1030a4001e009000ae0090004808de0001002000e1
:1030b400004f78001e407800bfff07001e009000fc
:1030c400ae0090004008de0001002000004f7800b0
:1030d4001e407800b8ff07001e009000ae0090006c
:1030e4004809dd004800de0000007100c808de0069
:1030f400004f78001e407800afff07001e009000cc
:10310400004f78001e407800abff07000080fa00f3
:10311400000006000a00fa00004f98000040eb008f
:10312400004f78000e489000104798008e80e80009
:1031340000c3b300804878008e80e80000c3b30069
:10314400904098008e80e80000c3b300a04098002f
:103154008e80e8000040eb00b04098009e40900054
:1031640070ccb30080cf50000a0036000e80e80017
:10317400104078008040780080ccb30000c040004c
:103184008e80e800804878001e4090008043b000a4
:10319400104798009e40900030c6b30080cf500086
:1031a400090036000e80e800104078004046b00068
:1031b4008e80e800804878009e409000c0c9b3002b
:1031c40000c04000104798000040eb00004f78001a
:1031d400260037001e4078008080fb00c08220005b
:1031e40000804000904078001e40900080cf500046
:1031f4001d003e009e4078000180fb004200de007e
:10320400004078008080fb000101e8000080fb00a2
:103214000000e8008e80e800008040001040780044
:10322400804078001e4078008081fb0040832000ad
:10323400008041001040780000c040008e80e8000b
:1032440082804000804878001e4078008080fb0027
:10325400c082200000804000104078009e40900012
:1032640000c05000104798001e4fe8001e40780030
:10327400e74f5000d7ff36008e80e8000040eb0097
:10328400b04098000e80e800fdfe07000080fa00c0
:10329400000006000c00fa00500798000040eb0004
:1032a400004f78005e00900010079800e40047008b
:1032b40000c3b30080487800e400470000c3b300b3
:1032c40090409800e400470000c3b300a040980079
:1032d400e400470000c3b300b0409800e400470096
:1032e40000c3b300c04098000040eb00004f7800da
:1032f400270037009e4078000180fb0080004000da
:103304000080200000804000900078001e009000a3
:10331400808f50001d003e009e4178000380fb001a
:103324004200de00004078000081fb000080fb00ca
:10333400e40047000080400010407800804078009e
:103344009e4178000380fb00e3016000808220003e
:10335400008041001040780000c04000e4004700b5
:1033640082804000804878009e4078000180fb0005
:1033740080004000008020000080400010007800a1
:103384009e00900000805000100798001e4fe80037
:103394001e407800f34f5000d6ff3600e40047008b
:1033a4000040eb00d040980064004700b4fe0700e2
:1033b4000080fa00000006000000fa00a04280002d
:1033c400e10f500002003a000f020700030037002b
:1033d40080e228004bfd07000040eb000080fa006b
:1033e400000006000200fa00f3ff0700004f780017
:1033f4001e40780096fe07001e4078000080fa0008
:10340400000006000000fa00a0428000e10f500016
:1034140002003a00f60107000300370020e7280005
:1034240038fd07000040eb000080fa0000000600b1
:103434000400fa00008fbe0010002000a0428800a3
:103444001e00be00fc0107000080fa000000060018
:103454000400fa00004f7800110798001e4078001d
:10346400e04f500002003a001e00900025fd0700c6
:103474000080fa00000006000800fa00881f7800a7
:1034840020079800310798002e009000be0090009d
:10349400d3f40700008fbe001e00be00ebf407004b
:1034a4000001be002e009000be0090001bf4070037
:1034b40018c0b3000200200003f02300c6f4070084
:1034c400e00f5000010035000044eb00e04f5400d1
:1034d400020032001e00be0004003700120020006b
:1034e400030020003e004100ae8049004f047800f4
:1034f4000080fa00000006000600fa00881f780029
:1035040010079800210798001e009000ae0090005c
:10351400b3f40700000f78001e00780001002000bb
:10352400caf407000001be001e009000ae00900027
:10353400faf3070018c0b3000200200003f02300d0
:10354400a5f40700e00f5000010035000044eb0033
:10355400e04f5400020032001e00780001003700e2
:103564001e00e8004f0478000080fa000000060006
:103574000a00fa00889fbe003007980041079800af
:103584000068290081c12400008fbe003e00900025
:1035940001002000adf407001e01be001ef5070067
:1035a4000004be004e00900001002000a7f40700b4
:1035b4000001be000800be0036f40700020020002f
:1035c400a347240033f40700008fbe0018c0b300e3
:1035d40002f82f00f37724001e00be007ef40700db
:1035e400e00f5000010035000044eb0041cc2800fe
:1035f4000840780096ff07001e00be00beff0700cb
:10360400200798002e0090004f04be000080fa00ae
:10361400000006000a00fa00889fbe0030079800e8
:10362400410798000068290081c12400008fbe0072
:103634003e0090000100200084f407001e01be003b
:10364400f5f407000004be004e00900001002000c5
:103654007ef407000001be000800be000df4070060
:1036640002402200439724000af40700008fbe00a2
:1036740018c0b30002f82f00f37724001e00be0028
:1036840055f40700e00f5000010035000044eb0042
:1036940021d22800084078006dff07001e00be00fc
:1036a40095ff0700200798002e0090004f04be00ed
:1036b4000080fa00000006000e00fa00889fbe0099
:1036c4004007980051079800620798000068290095
:1036d40081c12400008fbe004e009000de009000e7
:1036e4005af407001e01be00cbf407000004be001c
:1036f4006e0090000100200054f407000001be0099
:103704000800be00e3f307000240220043972400b0
:10371400e0f30700008fbe001e00be0056ff070046
:1037240020079800310798002e009000be009000fa
:103734004f04be000080fa00000006000a00fa00f0
:10374400004f980010002000000f78008000200037
:1037540010079800000420002007980000102000a3
:103764003007980010c0b3008e489000e3cf50009b
:10377400010036000040eb0001d8280034ff0700a8
:103784000e4890000080fb00000040006e007800ae
:103794000080fa00000006000e00fa0040079800be
:1037a40051079800620798004e009000de009000d8
:1037b40026f40700008fbe006e0090000100200078
:1037c40022f407001e01be0093f4070002682900da
:1037d40083c12400aff3070002002000a3472400a4
:1037e4008df40700008fbe001e00be0022ff0700fc
:1037f40020079800310798002e009000be0090002a
:103804000080fa00000006000e00fa00400798004d
:1038140051079800620798004e009000de00900067
:103824000af40700008fbe006e0090000100200023
:1038340006f407001e01be0077f4070002682900a1
:1038440083c1240093f3070002402200439724001d
:1038540071f40700008fbe001e00be0006ff0700c3
:1038640020079800310798002e009000be009000b9
:103874000080fa00000006000e00fa0040079800dd
:1038840051079800620798004e009000de009000f7
:10389400eef30700008fbe006e00900001002000d0
:1038a400eaf307001e01be005bf40700026829006a
:1038b40083c1240077f3070082b22600e3e62400e4
:1038c40055f40700008fbe001e00be00eafe07008c
:1038d40020079800310798002e009000be00900049
:1038e4000080fa00000006000c00fa00200798008f
:1038f4003107980042079800530798005e00900033
:10390400e00f500006003a00be0090002e00900028
:103914000080500001002000008fbe001c00370012
:10392400ce0090002e009000008050000000e800bf
:1039340001002000008fbe005e0090000100200006
:1039440061015000e08158004e0090000100200009
:1039540061004000e0804800009ab9000402780049
:10396400028bb90086027800050242000010b800fc
:1039740001024200840078001e0f40005e97480058
:103984003e009000010020001e0f40005e9748009a
:103994001e00be000080fa00000006000800fa00c5
:1039a400100798002107980032079800ae00900095
:1039b4001e009000808f500004003900ae0090007b
:1039c4001e009000008f500006003700be009000db
:1039d4001e00900000805000000fe8002e009000b0
:1039e4001e0f40001e0078000080fa000000060050
:1039f4000400fa00004f7800110798001e40780078
:103a0400e04f500002003a001e009000bdfb07008a
:103a14000080fa00000006000800fa002007980061
:103a2400310798002e019000be019000005a220038
:103a3400610220002cf407000081eb008081eb0080
:103a4400021f40000397480014c0b300f0ff2f008a
:103a5400010020001e01be00800f5100818f59001b
:103a6400010036000042eb0041b028000440780019
:103a7400dfff07002062a9001e00780040118800c3
:103a84000080fa00000006000200fa00004f7800ef
:103a940010c0b3009e407800e3cf50000100360010
:103aa4000040eb00a1b72800d1ff07009e4078003a
:103ab40063c060000080fb00630060000000400001
:103ac4000211800091ff2f008100610000807000ce
:103ad400001188000080fa00000006000200fa00cd
:103ae400004f780010c0b3009e407800e2cf500031
:103af400010036000040eb00a1c02800bcff070015
:103b04001e40e900614060000080fb00610060002d
:103b140002118000e1ff2f0081006100008070002d
:103b2400001188000080fa00000006000000fa007e
:103b340001118000f0cf2f00008060000011880088
:103b440021e2a8002342a8000080fa000000060039
:103b54000200fa001011800068006000e00f5000bd
:103b64000400320030118000004f780060c8280043
:103b740064fb07001011800064006000e00f500037
:103b84000400320030118000004f7800a0c92800e2
:103b94005cfb07001011800062006000e00f500021
:103ba400030032002222a900f0ca280055fb0700b6
:103bb4000080fa00000006000200fa00004f7800be
:103bc4000100370017fb07001111800000202000be
:103bd40000806000e00f5000faff3a009e40780039
:103be4000180fb00201188000080fa00000006001c
:103bf4000000fa001011800000407800614060006d
:103c04000080fa00000006000000fa0001003700fe
:103c140004fb07001011800061006000e00f5000f9
:103c2400fbff3200caff070030118000004078001b
:103c34000080fa00000006000400fa00008fbe00b5
:103c44002135800000fe2f0000806000a000b3003a
:103c54002035880051368000f00f2e0080806000ef
:103c64000030200000807000503688001e00be0026
:103c740069ff07000040eb0083ff070010c0b3009a
:103c840096ff0700a9ff07000080fa000000060065
:103c94000400fa00004f7800110798001e407800d5
:103ca400e04f500002003a001e00900015fb070090
:103cb4000080fa00000006000400fa002047980083
:103cc40010c0b300ae409000e7cf500001003600b2
:103cd4000040eb00c1eb2800edff0700ff3ffc00b4
:103ce400103a8000000f78002e409000674060007a
:103cf4000080fb00670060004800dd001e017800c2
:103d0400f18f2f008100610000807000000f7800a7
:103d14001e0078000000a000000f78000e00e800ec
:103d2400104078000081fb0080072000a1092000da
:103d340033742000804978008149780082497800f2
:103d44000e007800104078000081fb006004200021
:103d5400710520002374200080497800814978008f
:103d6400824978000000fc0000000000103a800046
:103d740061006000e00f5000fcff3a002e4090000c
:103d8400e14f5000040032002e409000e34f5000f9
:103d940007003a000100370000000000113a8000db
:103da4000002200000806000e00f5000fbff3200a2
:103db4000080fa00000006000000fa000080fa000b
:103dc400000006000000fa0010c0b300baff0700ac
:103dd4000080fa00000006000000fa0010c0b300e2
:103de400b5ff0700413a800000fc2f00008060000e
:103df400403a88000080fa00000006000000fa0043
:103e04000040eb00acff0700413a800000fc2f00ab
:103e140080806000d002200000807000403a88005a
:103e2400213a800000fe2f00008060006000b30093
:103e3400203a8800313a800000e02f008080600042
:103e4400900b200000807000303a8800213a8000f6
:103e5400f0f32f0000806000203a880010c0b30007
:103e640095ff07000080fa00000006000000fa0039
:103e74000040eb0090ff0700213a800000fe2f0075
:103e8400008060000020a000203a8800313a8000c1
:103e940000e02f0080806000000820000080700097
:103ea400303a8800213a8000f0f32f00008060004f
:103eb400203a880010c0b3007fff07000080fa009a
:103ec400000006000000fa000040eb007aff070043
:103ed400213a800000fe2f0000806000203a880014
:103ee400313a800000e02f008080600060022000f2
:103ef40000807000303a8800213a8000f0f32f00ef
:103f040000806000203a880010c0b3006aff0700f8
:083f14000080fa000000060025
:020000040000fa
:103f1c004408000004000000020000000000000043
:103f2c00000000003c080000080000000000000039
:103f3c00000800003c0000000200000050c33000ec
:103f4c0075204e001027880013b80b00d007e8002e
:103f5c0003f401002c01c8000064000032001e00b4
:103f6c00001400000a00050000030000020001001c
:103f7c0000050300020132001e140a0005030200b2
:103f8c0001050300020105000302010054080000b2
:103f9c000200000002000000010000004e080000ba
:0c3fac0006000000000000000000000003
:00000001FF
